:100000000C941A030C9442030C9442030C94420384
:100010000C9442030C9442030C9442030C9442034C
:100020000C9442030C9442030C94E7080C94560978
:100030000C9442030C9442030C9442030C9442032C
:100040000C9442030C9442030C9442030C9442031C
:100050000C9442030C9442030C9442030C94880BBE
:100060000C9442030C9442030C9442030C944203FC
:100070000C9442030C9442030C9442030C944203EC
:100080000C94D20B0C9442030C9442030C94420344
:100090000C9442030C9442030C9442030C944203CC
:1000A0000C9442030C9442030C94420300000000A1
:1000B000003E5B4F5B3E3E6B4F6B3E1C3E7C3E1CEE
:1000C000183C7E3C181C577D571C1C5E7F5E1C0034
:1000D000183C1800FFE7C3E7FF0018241800FFE7EB
:1000E000DBE7FF30483A060E2629792926407F05AE
:1000F0000507407F05253F5A3CE73C5A7F3E1C1CC4
:1001000008081C1C3E7F14227F22145F5F005F5F83
:1001100006097F017F006689956A6060606060946F
:10012000A2FFA29408047E040810207E2010080874
:100130002A1C08081C2A08081E101010100C1E0C7F
:100140001E0C30383E3830060E3E0E060000000011
:100150000000005F00000007000700147F147F14F8
:10016000242A7F2A1223130864623649562050003D
:1001700008070300001C2241000041221C002A1C29
:100180007F1C2A08083E0808008070300008080814
:100190000808000060600020100804023E51494534
:1001A0003E00427F400072494949462141494D3352
:1001B0001814127F1027454545393C4A49493141B9
:1001C000211109073649494936464949291E000087
:1001D00014000000403400000008142241141414DC
:1001E0001414004122140802015909063E415D59C8
:1001F0004E7C1211127C7F494949363E41414122D1
:100200007F4141413E7F494949417F090909013EFA
:10021000414151737F0808087F00417F4100204021
:10022000413F017F081422417F404040407F021C33
:10023000027F7F0408107F3E4141413E7F0909094A
:10024000063E4151215E7F09192946264949493216
:1002500003017F01033F4040403F1F2040201F3FDC
:100260004038403F63140814630304780403615961
:10027000494D43007F4141410204081020004141A3
:10028000417F04020102044040404040000307084F
:100290000020545478407F2844443838444444284B
:1002A000384444287F385454541800087E090218F2
:1002B000A4A49C787F0804047800447D400020407A
:1002C000403D007F1028440000417F40007C0478BE
:1002D00004787C080404783844444438FC18242406
:1002E0001818242418FC7C08040408485454542486
:1002F00004043F44243C4040207C1C2040201C3C03
:100300004030403C44281028444C9090907C4464F9
:10031000544C44000836410000007700000041368C
:10032000080002010204023C2623263C1EA1A16112
:10033000123A4040207A3854545559215555794144
:100340002154547841215554784020545579400C1B
:100350001E527212395555555939545454593955FC
:100360005454580000457C410002457D420001453F
:100370007C40F0292429F0F0282528F07C545545AC
:10038000002054547C547C0A097F4932494949323F
:100390003248484832324A4848303A4141217A3A54
:1003A00042402078009DA0A07D39444444393D401E
:1003B00040403D3C24FF2424487E4943662B2FFCCB
:1003C0002F2BFF0929F620C0887E09032054547979
:1003D000410000447D413048484A32384040227A4A
:1003E000007A0A0A727D0D19317D2629292F2826C7
:1003F0002929292630484D402038080808080808CF
:100400000808382F10C8ACBA2F102834FA00007B27
:10041000000008142A142222142A1408950022002D
:1004200095AA005500AAAA55AA55AA000000FF00E7
:10043000101010FF00141414FF001010FF00FF1024
:1004400010F010F0141414FC001414F700FF000056
:10045000FF00FF1414F404FC141417101F10101FD5
:10046000101F1414141F00101010F0000000001FC3
:10047000101010101F10101010F010000000FF10CE
:100480001010101010101010FF10000000FF1400CA
:1004900000FF00FF00001F10170000FC04F41414FC
:1004A0001710171414F404F40000FF00F7141414C8
:1004B00014141414F700F7141414171410101F1048
:1004C0001F141414F4141010F010F000001F101F6B
:1004D0000000001F14000000FC140000F010F010D9
:1004E00010FF10FF141414FF141010101F00000050
:1004F00000F010FFFFFFFFFFF0F0F0F0F0FFFFFF54
:100500000000000000FFFF0F0F0F0F0F38444438AA
:10051000447C2A2A3E147E02020606027E027E02E5
:1005200063554941633844443C04407E201E200604
:10053000027E020299A5E7A5991C2A492A1C4C7241
:1005400001724C304A4D4D303048784830BC625AC8
:10055000463D3E494949007E0101017E2A2A2A2A58
:100560002A44445F444440514A444040444A514034
:100570000000FF0103E080FF000008086B6B0836F5
:1005800012362436060F090F060000181800000066
:100590001010003040FF0101001F01011E00191D55
:1005A0001712003C3C3C3C0000000000D5F08D14CC
:1005B000A1C881CFD9F1AF2000C0A0D92181FFA867
:1005C00000A800A83F080B00020202000009040076
:1005D00000010202000005240010010524010101B0
:1005E00004240206052406000107058103100040CB
:1005F00009040100020A0000000705020240000091
:10060000070583024000000403090412010002EF01
:10061000020140412336800001010203014172645E
:1006200075696E6F204C4C430041726475626F793E
:1006300000001C0C11241FBECFEFDAE0DEBFCDBFDF
:1006400011E0A0E0B1E0E2E1F8E202C005900D9215
:10065000A83DB107D9F726E0A8EDB1E001C01D9291
:10066000AC35B207E1F713E0CAE1D3E004C021974B
:10067000FE010E940114C931D107C9F70E94390C4B
:100680000C9407140C9400002F923F924F925F92AB
:100690006F927F928F929F92AF92BF92CF92DF9292
:1006A000EF92FF920F931F93CF93DF9300D000D070
:1006B000CDB7DEB76A01E62E43E0442EA8E0B2E0F3
:1006C000F22FBB24682E969596959695E1E001FD54
:1006D000E4E000FDEE0F02FDE2955FEF5E9F10018A
:1006E00020943094159507951595079515950795C0
:1006F000402F4F3F4CF44095941B40FC440F489FC3
:10070000C00CD11CEB1C4FEF37FF0BC0620E40FE3C
:1007100002C0220F331FC21AD30AEB0837FDE3943D
:10072000FF2750E845030F0EA00DB11D5F1B651696
:1007300008F0652E57E0541B591714F4952FB39405
:1007400050E85619682F772741FC02C06619770BCD
:1007500040FE02C0660F771F1124A42EFE2E0090CB
:100760000602D00C00900702E01C19C0599843E023
:100770004EBDC60ED71EE11C7724861509F0739472
:100780000CD0EEBC07D0DEBC05D0CEBC03D01EBC66
:1007900003D00895C8950000C895C8950895C61A55
:1007A000D70AE108E3DFA1141CF0992371F564C0B6
:1007B000A058BF4F962C40FC0CC02EB51EBC2F9DE0
:1007C0008C90832081288D92C89500C09A94A9F7B7
:1007D00011C02EB51EBC2F9D9001DEDF2EB41EBCB5
:1007E0002F9C10018C9030948320832A8D92C89581
:1007F0009A9479F71124A619B1099A9509F45CC065
:10080000772019F00DB4599AB1DFFD01E058FF4F80
:10081000962C40FC0EC02EB51EBC2F9D8C908220C5
:1008200080288D9280808320812881929A9499F7E4
:1008300016C02EB51EBC2F9D90018C903080AEDF6F
:1008400000C02EB41EBC2F9C00948020822A8D9262
:1008500010943120332A319200009A9451F71124D8
:10086000A50FB11D9A9561F6BB2031F1772021F0DB
:100870000DB4599A7BDFC89540FC0CC02EB51EBC48
:100880002F9D8C90822080288D92C89500C06A94FC
:10089000A9F712C02EB51EBC2F9D90017DDF9EB51D
:1008A0001EBC9F9D902D8C9090958922822A8D92BE
:1008B000C8956A9479F7C8951124599A0DB40F9088
:1008C0000F900F900F90DF91CF911F910F91FF909C
:1008D000EF90DF90CF90BF90AF909F908F907F90E0
:1008E0006F905F904F903F902F900895FC0120856E
:1008F000318587816091050270E093E0899F600DEA
:10090000711D1124C9010E94D913892B31F48681EC
:100910009581891738F48F5F86832F5F3F4F31872A
:10092000208708951682F9CF811105C081E06111F9
:1009300006C080E004C0813019F46230D0F308951D
:1009400081E06330E0F7F5CF91E0E8E0F2E091116B
:100950009FEF8FEF91939193919391938150D0F763
:100960000895FC0180910402882311F13FB7F894A7
:1009700082E08093E9002091F200822F90E0181627
:10098000190614F481E090E0882339F0289844E6B1
:10099000409303024091F1004083222339F02091DB
:1009A000F200211103C02BE62093E8003FBF089519
:1009B0008FEF9FEF08952FB7F89483E08093E900BD
:1009C0009091E800892F807295FF04C09091F20009
:1009D00080E4891B2FBF08958091FB0181110DC018
:1009E00082E08093F70184E08093F8011092FA018D
:1009F0001092F90181E08093FB0187EF91E0089567
:100A0000CF93DF931F92CDB7DEB76983DC01ED9101
:100A1000FC910280F381E02D41E050E0BE016F5F68
:100A20007F4F09950F90DF91CF91089583E08093D8
:100A3000E9008091F200882319F08AE38093E800AE
:100A400008950E94DB0490E00895CF93DF931F92F6
:100A5000CDB7DEB7FC018485958597FD08C02FEFE3
:100A60003FEF358724870F90DF91CF910895CE0116
:100A700001960E94B104019719F4898190E0F3CFA7
:100A80008FEF9FEFF0CF0F931F93CF93DF931F92C2
:100A9000CDB7DEB78C01FC018485958597FF0BC02F
:100AA000CE0101960E94B104019771F4898190E012
:100AB000F80195878487F801848595850F90DF91EB
:100AC000CF911F910F9108958FEF9FEFF1CFFC0110
:100AD0008485958597FD0BC09FB7F89482E080933D
:100AE000E9008091F2009FBF90E0019608959FB7C2
:100AF000F89482E08093E9008091F2009FBF90E03B
:100B000008954091F1015091F2012091EF0130914F
:100B1000F00142175307B4F49091E8009570E1F3A7
:100B20009091E80092FD19C08093F1008091F1014D
:100B30009091F20101968F739927892B19F48EEF0A
:100B40008093E8008091F1019091F20101969093D9
:100B5000F2018093F10181E0089580E00895DF9231
:100B6000EF92FF920F931F93CF93DF93D82E8A01BA
:100B7000EB017B01E40EF51ECE15DF0559F0D7FE23
:100B800012C0FE0184910E94810521968111F4CF4B
:100B90000FEF1FEFC801DF91CF911F910F91FF90D1
:100BA000EF90DF9008958881EECF0F931F93CF933E
:100BB000DF931F92CDB7DEB782E0898342E450E035
:100BC00065EC75E080E80E94AF050E94EC04DC0152
:100BD00012960D911C910115110589F0D801ED9126
:100BE000FC910280F381E02DBE016F5F7F4FC80151
:100BF000099597FD04C0F80100851185ECCF898126
:100C00000F90DF91CF911F910F910895615030F0B7
:100C10002091F100FC0120830196F8CF289884E60A
:100C2000809303020895AF92BF92CF92DF92EF922A
:100C3000FF920F931F93CF93DF936C017B018B0186
:100C4000040F151FEB015E01AE18BF08C017D107D6
:100C500059F06991D601ED91FC910190F081E02D60
:100C6000C6010995892B79F7C501DF91CF911F91B5
:100C70000F91FF90EF90DF90CF90BF90AF900895CD
:100C80008FB18095807F669B88601C9B84600895EF
:100C900090E1282F81E061FD84E060FD880F62FD16
:100CA0008295687F969FD0011124A20FA85FBD4F47
:100CB0000C90082A40FF08260C9208959091E601B6
:100CC000982329F49091E701982381E009F480E0CA
:100CD00008950DB407FEFDCF8EB5599A08950DB451
:100CE00007FEFDCF8EB51EBC089559980E948D0653
:100CF000862F0E948D06852F0E948D06842F0C94CE
:100D00008D06462F50910602570F60910702681F0B
:100D100083E00E9475061EBC08958EBD00008EB54E
:100D20000DB407FEFCCF0895FC010E942F073197F8
:100D300028F068517C4F8F4F9F4FF9CFAB01FC01DA
:100D40000E942F07641775078E079F07C8F3089541
:100D500085E090E00C9494068F929F92AF92BF92A0
:100D6000CF92DF92EF92FF920F931F93CF93DF9377
:100D70006C017B018A0180915E01882309F45AC0CD
:100D800080910402882309F455C08091F60180FF08
:100D900005C08091E00082608093E000E801B12C02
:100DA0008AEFA82E93E0892E2AE3922E209711F441
:100DB000BB20C9F10E94DB04811108C0AA94AA20BB
:100DC000C9F181E090E00E949406F0CF8C171D06D7
:100DD00011F00CF08C2F9FB7F8948092E9002091CD
:100DE000E80025FD02C09FBFE1CF282F30E0C21BE5
:100DF000D30BF701815020F041914093F100FACFDD
:100E0000E20EF31EBB2021F09092E800B12CEBCF54
:100E10008091E80085FDE7CF9092E800BB24B39471
:100E2000209709F3F3CF5D9884E68093F5011016BF
:100E300011063CF081E090E0F6019383828310E09C
:100E400000E0C801DF91CF911F910F91FF90EF90CB
:100E5000DF90CF90BF90AF909F908F900895AEEDB0
:100E6000B1E02FB7F8947D918D919C9166B52FBF1D
:100E7000A89B05C06F3F18F47F5F8F4F9F4F22E004
:100E8000660F771F881F991F2A95D1F708956F92D3
:100E90007F928F929F92AF92BF92CF92DF92EF920A
:100EA000FF920F931F93CF93DF936D3081F00091EA
:100EB000E8011091E9016A30D9F41092EB01109227
:100EC000EA01085F1F4F1093E9010093E80181E0F8
:100ED00090E0DF91CF911F910F91FF90EF90DF9005
:100EE000CF90BF90AF909F908F907F906F9008951C
:100EF000C62FE090EA01F090EB01D09105026091DD
:100F000000018D2F0E949404782E60E08D2F0E94A6
:100F10009404682E78122FC0672D8D2F0E949404A0
:100F2000782E570126E0A20EB11CE701480188E0A7
:100F3000880E911CCA15DB0509F44FC0680117FF24
:100F400002C0D12CC12CC401E1E48E16910414F02E
:100F500080E490E0C816D90664F4C038D10528F4BE
:100F6000472DB601CE010E944806FFEFCF1ADF0AD7
:100F7000EACF2196DFCF25E0C29FE0011124C455BE
:100F8000DF4F5701D12C85E0C12CD81629F0CE01B6
:100F90000196FE01C490EC01912C812C462DC0FCE1
:100FA000472DF0E8AF16B10448F4B801680D791D7B
:100FB0006034710518F4C5010E944806C6942FEFED
:100FC000821A920A88E08816910441F7D394EFEFD1
:100FD000AE1ABE0AF6E0DF12D6CF26E0E20EF11C12
:100FE000F092EB01E092EA0172CF30E73CBDDC0108
:100FF00030E8439FC0011124A80FB91F5E91352F1F
:101000006111372F3C93C89500C052235EBD0197F4
:10101000A9F704D003D030E50DB43CBD0895EDE24E
:10102000F1E0178610922C01258580E290E0821B6A
:10103000910993838283EEE0F1E080E4808314865B
:101040000895AF92BF92CF92DF92EF92FF920F93EB
:101050001F93CF93DF93EC015B016901E42E842F92
:10106000B9010E9481060E946F06F82E0E9469064F
:10107000C038D1050CF03EC090E4A916B1040CF0C4
:1010800039C02F2D30E0A9014C0F5D1F1416150635
:101090000CF030C0E82FF0E0AF014A0D5B1D1416D4
:1010A00015060CF027C0FE2FEE27EF29F32B92E058
:1010B000C90ED11CE11C93E001151105A1F0869524
:1010C0008695869590FD880F8F9D9001219FD00C6D
:1010D000E11C309FD00CE11C319FE00C209FC00C24
:1010E000D11C1124E11C85019E016E2DA601CF01AA
:1010F0000E944403DF91CF911F910F91FF90EF90D9
:10110000DF90CF90BF90AF9008955C98FC0125913F
:10111000CF012EBD00000DB407FEFDCF6150B1F729
:101120005C9A0895089590E080E00895FC01019094
:101130000020E9F73197AF01481B590BBC0188E546
:1011400096E00C9413068F929F92AF92BF920F93EA
:101150001F93CF93DF93CDB7DEB7A1970FB6F89467
:10116000DEBF0FBECDBF19A2423008F44AE08E01A7
:101170000F5D1F4F842E912CB12CA12CA501940141
:101180000E947712E62FB901CA01EA30F4F4E05D5B
:10119000D801EE938D01232B242B252B79F790E09A
:1011A00080E0109719F0CD010E949608A1960FB625
:1011B000F894DEBF0FBECDBFDF91CF911F910F918D
:1011C000BF90AF909F908F900895E95CE1CF1F9200
:1011D0000F920FB60F9211248F939F938091E1008D
:1011E0009091E100937F9093E10083FF0FC01092F4
:1011F000E90091E09093EB001092EC0092E3909361
:10120000ED001092040298E09093F00082FF22C05B
:1012100093E09093E9009091F200992319F09AE3FA
:101220009093E8009091F501992341F09091F50198
:1012300091509093F501911101C05D9A9091030234
:10124000992341F0909103029150909303029111E0
:1012500001C0289A84FF18C08091E2008E7E8160D0
:101260008093E2008091E1008F7E8093E100809185
:10127000F6018E7E80618093F6019F918F910F9091
:101280000FBE0F901F90189580FFF7CF8091E2005E
:101290008E7E80618093E2008091E1008E7E80935B
:1012A000E1008091F6018E7E8160E5CF1F920F9262
:1012B0000FB60F921124CF92DF92EF92FF920F930D
:1012C0001F932F933F934F935F936F937F938F93CE
:1012D0009F93AF93BF93EF93FF93CF93DF93CDB7DC
:1012E000DEB76C97DEBFCDBF1092E9008091E800B9
:1012F00083FF25C068E0CE0145960E94060682EF76
:101300008093E8008D8987FF39C09091E80090FFB5
:10131000FCCF982F907609F034C19E894F89588D63
:101320002F89F88C911131C0803861F58091F401DA
:101330008093F1001092F1008EEF8093E8006C969C
:101340000FB6F894DEBF0FBECDBFDF91CF91FF91F6
:10135000EF91BF91AF919F918F917F916F915F912D
:101360004F913F912F911F910F91FF90EF90DF9040
:10137000CF900F900FBE0F901F9018959EEF9093F7
:10138000E800C7CF1092F100D5CF913059F4811108
:10139000D3CF4130510581F68091F4018D7F809348
:1013A000F401CACF933049F48111C6CF41305105C1
:1013B00019F68091F4018260F2CF953041F480916A
:1013C000E80080FFFCCF20682093E300B5CF963083
:1013D00009F0A9C00B8D1C8D22E01092E90010923B
:1013E000F2011092F101F2122EC01092F00110924F
:1013F000EF010E94D5051F8299E09983FA8291E05E
:101400009E8390EA98879AEF99872091F101309115
:10141000F201275F3F4F3C832B838D831092E900BD
:101420001092F2011092F1011093F0010093EF017C
:1014300049E050E0BE016F5F7F4F80E00E94AF0542
:101440000E94D50579CF1093F0010093EF010E941F
:10145000EC04DC0112960D911C910115110509F4A3
:1014600051C1D801ED91FC910480F581E02DBE01C0
:101470006B5E7F4FC8010995009709F03EC1F801E6
:1014800000851185EACFF3E0FF120EC08F89882313
:1014900009F440C0823061F440E867E089E296E0F8
:1014A0000E94E90B811148CF81E28093EB0047CF86
:1014B000813029F440E86BE08DE196E0F1CF833094
:1014C00099F70E94EC04DC011296ED90FC908E01DD
:1014D0000F5F1F4F6801E114F10479F0D701ED911E
:1014E000FC910680F781E02DB801C7010995080F2E
:1014F000111DF701E084F184EECFD8011C92F601B2
:1015000001900020E9F73197BF016C197D0940E097
:10151000C601C6CF67E076E0FB01449150E080E869
:101520000E94AF0509CF973009F4BECF983021F45F
:1015300081E08093F10000CF993009F0FDCE8370F7
:1015400009F0B2CFE4E6F1E081E031E096E32191E9
:10155000222371F08093E9003093EB00DF011197B3
:101560002C912093EC009093ED008F5F873079F7FA
:101570008EE78093EA001092EA008F89809304023C
:10158000DBCE8B8D9C8D1092E9001092F2011092AF
:10159000F1019093F0018093EF01898D811192C048
:1015A0008E899D89913A49F4813209F07DCF47E0D7
:1015B00050E067E571E080E0B3CF913209F074CF7D
:1015C000833269F48F89988DB0E0A0E08093530155
:1015D00090935401A0935501B0935601ADCE803243
:1015E00069F48091E80082FFFCCF67E087E591E035
:1015F0000E9406068BEF8093E8009ECE823209F0AF
:101600009BCE8F8980935E01EEEFFFE785919491E9
:101610008B3F9C4D51F1E0E0F8E0809157019091B3
:101620005801A0915901B0915A01803B9440A10505
:10163000B105F1F480915E0180FD1AC0EE3F8AE0B1
:10164000F80789F587E797E79183808380916000A9
:101650008093F30188E19BE00FB6F894A8958093FE
:1016600060000FBE9093600067CEEEEFFAE0D5CF3A
:10167000808191818737974709F05ECEA895809148
:1016800060008861809360008091F3018093600026
:10169000EE3F2AE0F20789F08091FE0A9091FF0A5E
:1016A0009183808349CE808191818737980751F259
:1016B0009093FF0A8093FE0AC5CF1092FF0A109202
:1016C000FE0A3ACE0E94EC04DC0112960D911C91A8
:1016D0000115110509F4E8CED801ED91FC910190B6
:1016E000F081E02DBE016B5E7F4FC801099581112D
:1016F00023CEF80100851185EBCF181619060CF4DE
:101700001BCED2CEF1E0FF12BECE6BE076E004CF6E
:101710000F920FB68F939F93EF93FF938091D90110
:101720008D5F8D3708F08D578093D901EAEDF1E098
:1017300080818E4F808391819F4F918382818F4FD3
:10174000828383818F4F8383EEEDF1E080818F5F11
:10175000808381818F4F818382818F4F82838381B8
:101760008F4F83838FB18F6066991C9B88278F363C
:1017700081F48091D801981B963068F0E0E0F8E0A1
:1017800087E78083818388E180936000F093600025
:10179000FFCF9093D801FF91EF919F918F910FBE52
:1017A0000F9018951F920F920FB60F9211248F93DE
:1017B0009F9382E496E0909399008093980081E053
:1017C0008093E4019F918F910F900FBE0F901F9017
:1017D0001895EF92FF920F931F93CF93DF93F82EFC
:1017E000192FE62E042F81E0860F880F0E948105B5
:1017F00083E00E948105CF2DD12FEC0EFD2EF11C30
:10180000CE15DF05B9F007FF13C0FE0184910E94D9
:101810008105182F80E00E94810581232196811186
:10182000EFCFDF91CF911F910F91FF90EF9008952F
:101830008881EDCF81E0F5CFE8E0F6E013821282F7
:1018400088EE93E0A0E0B0E084839583A683B7831D
:101850008EE691E0918380838FEF9FEF9587848759
:10186000E8E5F6E01382128280E891E091838083BC
:101870000895789483E084BD83E085BD81E0809302
:101880006E00E1E8F0E083E08083E0E881E08083BF
:10189000E1E983E08083E0E981E08083E1EC87E0B7
:1018A0008083E3EC81E08083E0EC82E08083E2EC03
:1018B00081E08083EAE787E08083806880831092FC
:1018C00004021092F4011092F6018091D700816019
:1018D0008093D70080EA8093D80089B5806189BD64
:1018E00089B5826089BD09B400FEFDCF81E090E03A
:1018F0000E9494068091D8008F7C80618093D800EC
:101900008091E000807F8093E0008091E1008E7EF6
:101910008093E1008DE08093E200559A209A81EC5B
:1019200080937C0081EF85B987EE84B982E38BB91F
:1019300082EF8AB9769A6E9880EF81BB10BA80E503
:101940008CBD81E08DBD0E94A8065F9A0E94A8060A
:101950005C98ECEAF5E085918EBD00000DB407FEC1
:10196000FDCFE93BC1F75C9A81E88093640081E098
:101970008093650068E089EB95E00E9485082FB7A9
:10198000F89482E496E0909399008093980093E015
:10199000909390008BE180939100109295001092AB
:1019A0009400809171008260809371002FBF9093AA
:1019B00000015E9AE4E1F0E083E89FEF60EF7FEFE3
:1019C00025913591559145912851354909F4CA0120
:1019D0008093060290930702259135915591459188
:1019E0002851354909F4BA016093E2017093E3018B
:1019F00059988BEA0E948D06599A1092EB01109229
:101A0000EA011092E9011092E80120E1222E26E37A
:101A1000322E412C3AE0632E3BE1732E812CC3E041
:101A200080E4A82EB12CD1E090E4992EF894809116
:101A3000E401811109C083B7816083BF78948895E0
:101A400083B78E7F83BFF2CF1092E4017894109118
:101A500005022FE741E050E061E070E088E895E0A2
:101A60000E94F50762E083EC95E00E9485082FEF65
:101A700047E051E061E070E088E092E00E94F50705
:101A800062E081EC95E00E9485088EEF810F1F5F78
:101A90008E3F30F48091E5018F5F8093E50110E087
:101AA000109305025E9A8091E501882309F44AC0EB
:101AB00081508093E5018091E7018093E6010E94C7
:101AC00040068093E70190911A0180910E019923BD
:101AD00009F452C08F5F80930E0180911B0188230F
:101AE00029F080910F018F5F80930F0180911C017D
:101AF000882329F080910F01815080930F018091FC
:101B00000F01811104C0D0931B0110921C01209180
:101B1000180130E0082E000C990BA501421B530B55
:101B20008417950721F410921B01D0931C0110918A
:101B3000EE01123009F474C008F51123C9F1113017
:101B400009F443C0E09005020E2D10E08091EE01F3
:101B5000823009F425C308F0FCC2882309F416C3B7
:101B6000813009F4B6C35E9820E030E0232B09F4FD
:101B70005DCF0E94000053CF8150ADCF133009F4E8
:101B800066C21430F9F683E091E00E94760480E3A7
:101B90008093030188E00E945E0681116FC284E099
:101BA0000E945E0681116AC20091050210E0D7C250
:101BB0008091010190910201009709F461C201979F
:101BC0009093020180930101BDCF88E491E00E94CF
:101BD00076048DE391E00E94760480910E018111DC
:101BE00002C010931A01082E000C990B20911801C5
:101BF00040E850E0421B51098417950711F41092F8
:101C00001A0188E00E945E06811106C084E00E94ED
:101C10005E06882309F459C382E08093EE0192CFD7
:101C200080913A019501281B3109C90120912F01AA
:101C3000309130018217930724F490933001809300
:101C40002F0180912F019091300197FF04C01092D5
:101C5000300110922F0180912F01909130011816C0
:101C600019066CF40E94400687FF09C080912F017D
:101C70009091300101979093300180932F018091D2
:101C80002F0190913001803491056CF40E94400640
:101C900084FF09C080912F019091300101969093AB
:101CA000300180932F0120910E01022E000C330B86
:101CB00050910F0140911801E42FF0E060913B0139
:101CC00080912D0190912E01860F911D28173907C3
:101CD00041F5A0912F01B0913001652F052E000C28
:101CE000770BCB018E0F9F1FA817B907D4F48091F3
:101CF0003A018D01080F111D6017710794F4869544
:101D00008A0F9B2F911DA42FA6956A0F711D861710
:101D1000970709F0CAC010921B0110921C01D093C2
:101D20001A012E0F3F1F80911D0190911E010396F5
:101D30002817390741F5A0911F01B0912001652FA7
:101D4000052E000C770BCB018E0F9F1FA817B9072C
:101D5000D4F480912A018D01080F111D60177107BD
:101D600094F486958A0F9B2F911DA42FA6956A0F38
:101D7000711D8617970709F0A8C010921B011092D9
:101D80001C0110921A01121613064CF080912C01BE
:101D90008F5F80932C01892D841B80930E0180918D
:101DA0000E01082E000C990B20E830E02E1B3F0B93
:101DB000821793074CF080913C018F5F80933C0128
:101DC000892D841B80930E0180912C018B3041F46E
:101DD000609205017092060180920701C093EE01A6
:101DE00080913C018B3049F420920501309206012C
:101DF0004092070184E08093EE01513434F09092D8
:101E00000F01D0931C0110921B0180910F0187FFDD
:101E100006C010920F0110921C01D0931B018091FB
:101E20000E0185360CF45FC080911F019091200156
:101E300020910F01022E000C330B281739070CF4E8
:101E4000DAC00E94ED1140911F01509120012091B4
:101E50002A0130E060910F018091180190E0860F17
:101E6000911D67FD9A95BA01620F731F6817790774
:101E70000CF4C7C00E94ED1123E030E040E050E0D8
:101E80000E9445126230710581059105D1F580915E
:101E90002A01A501481B510920911F013091200101
:101EA000241735070CF4B4C02CC06817790724F444
:101EB00010921B01D0931C01861797070CF02FCFAF
:101EC00010921C01D0931B012ACF6817790724F4C4
:101ED00010921B01D0931C01861797070CF051CF6D
:101EE000D0931B014CCF0E94ED1125E030E040E083
:101EF00050E00E944512613071058105910509F499
:101F000093CF80912F0185508093310180911F01E3
:101F10008550809321010E94400687FD7FC086E0A6
:101F200099E0A0E08093320190933301A0933401B3
:101F300082E080933501E0913801F09139012091E0
:101F4000050230E080913701B9018C9F600D711D51
:101F50001124CF010E94D913892B51F480913601AD
:101F600090913501891708F069C08F5F8093360121
:101F70003196F0933901E0933801E0912801F09116
:101F8000290180912701B9018C9F600D711D1124D9
:101F9000CF010E94D913892B51F480912601909191
:101FA0002501891708F04DC08F5F80932601319677
:101FB000F0932901E0932801E0911601F0911701B7
:101FC00080911501B9018C9F600D711D1124CF0105
:101FD0000E94D913892B49F4809114019091130127
:101FE000891790F58F5F809314013196F093170154
:101FF000E0931601A7CD01979093200180931F01D4
:1020000080CFC501821B930B481759070CF032CFC4
:1020100080911F01909120010196EECF0E94400611
:1020200084FF7DCF2CE03EE140E0209332013093ED
:10203000330140933401C09335017DCF10923601B6
:1020400097CF10922601B3CF10921401CECF80917A
:102050000E01811102C0D0931A01082E000C990BB9
:1020600040E850E0421B530B8417950711F410927F
:102070001A0188E00E945E06882329F00E940F085A
:10208000D093EE015FCD84E00E945E068111F6CF11
:102090000091050210E00330110560F41092EB018D
:1020A0001092EA011092E9011092E80181E991E0B1
:1020B0000E9496080E94ED1125E030E040E050E0DB
:1020C0000E94451262507109810991090E94E01233
:1020D00020E030E040EA5FE30E9444130E94A8122F
:1020E0007093ED016093EC010E94ED1120910901C4
:1020F0000091050210E02C9F000D111D1124C090CD
:102100000501D0900601E090070125E030E040E0B5
:1021100050E00E94451262507109810991090E94A4
:10212000E01220E030E040EA5FE30E9444130E94A6
:10213000A8122091040130E0620F731F5091030137
:102140008091EC019091ED014E2D9601850F911D2E
:1021500024C0833009F49FCF843009F004CD0230CD
:10216000110508F099C00E94A4041092EB0110928E
:10217000EA011092E9011092E80184EC91E00E94DA
:10218000960884ED91E00E9496088AC022E13CE323
:1021900040E070E060E090E080E00E942108E3CC45
:1021A0000230110568F50E94A4041092EB01109210
:1021B000EA011092E9011092E80188E891E00E949A
:1021C000960860913C0170E090E080E04AE00E9457
:1021D000A30884E690E09093EB018093EA011092CB
:1021E000E9011092E8018CE891E00E949608609164
:1021F0002C0170E090E080E04AE00E94A30803C058
:102200000230110591F2E0900502F12C8091140149
:1022100087018C9F000D111D112420911001309118
:1022200011014091120160910F01062E000C770BF5
:1022300080910E01082E000C990B0E9421088091BC
:10224000360187018C9F000D111D11242091320150
:10225000309133014091340160912F017091300130
:1022600080912D0190912E010E94210880912601DC
:1022700087018C9F000D111D1124209122013091A6
:1022800023014091240160911F01709120018091F0
:102290001D0190911E0181CF0230110509F465CF17
:1022A000809109010091050210E08C9F000D111D25
:1022B00011242091050130910601409107016091A0
:1022C000040170E0809103013AC0E09005020E2DF8
:1022D00010E00230110510F40E94A40424E134E55A
:1022E00040E070E060E090E080E00E942108F12C86
:1022F00080914E0187018C9F000D111D11242091AA
:102300004A0130914B0140914C016091490170E0CC
:102310008091480190E00E9421088091430187014B
:102320008C9F000D111D112420913F01309140011F
:102330004091410160913E0170E080913D0190E04B
:102340002CCF8F929F92AF92BF92CF92DF92EF925B
:10235000FF92CF93DF93EC01688179818A819B8121
:10236000611571058105910521F464E279ED8BE534
:1023700097E02DE133EF41E050E00E944512490122
:102380005A019B01AC01A7EAB1E40E9464126B01FF
:102390007C01ACEEB4EFA50194010E947212C60E4E
:1023A000D71EE81EF91EF7FE06C081E0C81AD10844
:1023B000E10880E8F80AC882D982EA82FB82C70174
:1023C000B6019F77DF91CF91FF90EF90DF90CF9094
:1023D000BF90AF909F908F9008958F929F92AF92F1
:1023E000BF92CF92DF92EF92FF9260915F01709166
:1023F0006001809161019091620161157105810513
:10240000910521F464E279ED8BE597E02DE133EF5E
:1024100041E050E00E94451249015A019B01AC0184
:10242000A7EAB1E40E9464126B017C01ACEEB4EF48
:10243000A50194010E947212C60ED71EE81EF91E55
:10244000F7FE06C081E0C81AD108E10880E8F80A62
:10245000C0925F01D0926001E0926101F09262014E
:10246000C701B6019F77FF90EF90DF90CF90BF90AC
:10247000AF909F908F90089560935F01709360017B
:1024800080936101909362010895052E97FB1EF4DD
:1024900000940E945C1257FD07D00E94771207FC3F
:1024A00003D04EF40C945C125095409530952195D4
:1024B0003F4F4F4F5F4F0895909580957095619570
:1024C0007F4F8F4F9F4F08950E949912A59F900DA7
:1024D000B49F900DA49F800D911D11240895B7FF06
:1024E0000C9464120E946412821B930B0895A1E263
:1024F0001A2EAA1BBB1BFD010DC0AA1FBB1FEE1F7E
:10250000FF1FA217B307E407F50720F0A21BB30BC8
:10251000E40BF50B661F771F881F991F1A9469F744
:1025200060957095809590959B01AC01BD01CF01A0
:102530000895A29FB001B39FC001A39F700D811D9C
:102540001124911DB29F700D811D1124911D0895BC
:102550000E94AF126894B1110C943E1308950E942A
:10256000231388F09F5798F0B92F9927B751B0F0EF
:10257000E1F0660F771F881F991F1AF0BA95C9F707
:1025800014C0B13091F00E943D13B1E008950C9455
:102590003D13672F782F8827B85F39F0B93FCCF308
:1025A000869577956795B395D9F73EF49095809584
:1025B000709561957F4F8F4F9F4F0895E89409C0A4
:1025C00097FB3EF490958095709561957F4F8F4F66
:1025D0009F4F9923A9F0F92F96E9BB279395F6957C
:1025E000879577956795B795F111F8CFFAF4BB0FFA
:1025F00011F460FF1BC06F5F7F4F8F4F9F4F16C05E
:10260000882311F096E911C0772321F09EE8872FE7
:10261000762F05C0662371F096E8862F70E060E0A3
:102620002AF09A95660F771F881FDAF7880F96951C
:10263000879597F9089557FD9058440F551F59F005
:102640005F3F71F04795880F97FB991F61F09F3F9F
:1026500079F087950895121613061406551FF2CFC8
:102660004695F1DF08C0161617061806991FF1CF18
:1026700086957105610508940895E894BB2766273F
:102680007727CB0197F908950E9457130C94C8132C
:102690000E94BA1338F00E94C11320F0952311F064
:1026A0000C94B1130C94B71311240C943E130E9494
:1026B0001B1370F3959FC1F3950F50E0551F629F58
:1026C000F001729FBB27F00DB11D639FAA27F00D8B
:1026D000B11DAA1F649F6627B00DA11D661F829FB2
:1026E0002227B00DA11D621F739FB00DA11D621F97
:1026F000839FA00D611D221F749F3327A00D611DB4
:10270000231F849F600D211D822F762F6A2F112495
:102710009F5750409AF0F1F088234AF0EE0FFF1FC8
:10272000BB1F661F771F881F91505040A9F79E3F1F
:10273000510580F00C94B1130C943E135F3FE4F309
:10274000983ED4F3869577956795B795F795E79575
:102750009F5FC1F7FE2B880F911D9695879597F97E
:10276000089597F99F6780E870E060E008959FEF13
:1027700080EC089500240A94161617061806090618
:10278000089500240A9412161306140605060895E7
:10279000092E0394000C11F4882352F0BB0F40F46F
:1027A000BF2B11F460FF04C06F5F7F4F8F4F9F4FAF
:1027B000089597FB072E16F4009407D077FD09D0F3
:1027C0000E94ED1307FC05D03EF4909581959F4F34
:1027D0000895709561957F4F0895AA1BBB1B51E129
:1027E00007C0AA1FBB1FA617B70710F0A61BB70B81
:1027F000881F991F5A95A9F780959095BC01CD0126
:102800000895EE0FFF1F0590F491E02D0994F894C0
:02281000FFCFF8
:10281200014B00441010360001001000000040205F
:102822000203000300030000100100010070000514
:1028320000000812000200030000162000F0FF054D
:10284200000006090002000300001620001C00041C
:10285200060003000600000000000000000300065E
:10286200000000FFFFFFFF00E10000000000000188
:1028720000000000C180810000000000000000058F
:10288200AC06210516056705250543050000000075
:1028920047071306930892084D313A004350553AC0
:1028A20000596F7520706C6179206C696B652068C6
:1028B200756D616E3A200A536C6F772C20636C75CC
:1028C2006D73792C20200A62616E616E612D6C65D8
:1028D200737321004159595920796F752077696EB8
:0828E200212121000D0A000074
:00000001FF
